{
  "contractName": "ContextAwareAccessControl",
  "abi": [
    {
      "inputs": [],
      "stateMutability": "nonpayable",
      "type": "constructor"
    },
    {
      "anonymous": false,
      "inputs": [
        {
          "indexed": false,
          "internalType": "string",
          "name": "policyId",
          "type": "string"
        },
        {
          "indexed": false,
          "internalType": "string",
          "name": "resourceName",
          "type": "string"
        },
        {
          "indexed": false,
          "internalType": "string",
          "name": "action",
          "type": "string"
        },
        {
          "indexed": false,
          "internalType": "string",
          "name": "reason",
          "type": "string"
        }
      ],
      "name": "AccessDenied",
      "type": "event"
    },
    {
      "anonymous": false,
      "inputs": [
        {
          "indexed": false,
          "internalType": "string",
          "name": "policyId",
          "type": "string"
        },
        {
          "indexed": false,
          "internalType": "string",
          "name": "resourceName",
          "type": "string"
        },
        {
          "indexed": false,
          "internalType": "string",
          "name": "action",
          "type": "string"
        }
      ],
      "name": "AccessGranted",
      "type": "event"
    },
    {
      "anonymous": false,
      "inputs": [
        {
          "indexed": false,
          "internalType": "string",
          "name": "policyId",
          "type": "string"
        },
        {
          "indexed": false,
          "internalType": "string",
          "name": "resourceName",
          "type": "string"
        },
        {
          "indexed": false,
          "internalType": "string",
          "name": "action",
          "type": "string"
        },
        {
          "indexed": false,
          "internalType": "string",
          "name": "reason",
          "type": "string"
        }
      ],
      "name": "AccessResult",
      "type": "event"
    },
    {
      "anonymous": false,
      "inputs": [
        {
          "indexed": false,
          "internalType": "string",
          "name": "message",
          "type": "string"
        },
        {
          "indexed": false,
          "internalType": "string",
          "name": "policyId",
          "type": "string"
        }
      ],
      "name": "DebugLog",
      "type": "event"
    },
    {
      "anonymous": false,
      "inputs": [
        {
          "indexed": false,
          "internalType": "string",
          "name": "policyId",
          "type": "string"
        },
        {
          "indexed": false,
          "internalType": "string",
          "name": "description",
          "type": "string"
        }
      ],
      "name": "PolicyAdded",
      "type": "event"
    },
    {
      "inputs": [],
      "name": "owner",
      "outputs": [
        {
          "internalType": "address",
          "name": "",
          "type": "address"
        }
      ],
      "stateMutability": "view",
      "type": "function",
      "constant": true
    },
    {
      "inputs": [
        {
          "internalType": "string",
          "name": "",
          "type": "string"
        }
      ],
      "name": "policies",
      "outputs": [
        {
          "internalType": "string",
          "name": "policyId",
          "type": "string"
        },
        {
          "internalType": "string",
          "name": "description",
          "type": "string"
        },
        {
          "internalType": "string",
          "name": "version",
          "type": "string"
        },
        {
          "components": [
            {
              "internalType": "string",
              "name": "ruleId",
              "type": "string"
            },
            {
              "internalType": "string",
              "name": "effect",
              "type": "string"
            },
            {
              "internalType": "string[]",
              "name": "authorizedUsers",
              "type": "string[]"
            },
            {
              "internalType": "string[]",
              "name": "resources",
              "type": "string[]"
            },
            {
              "components": [
                {
                  "internalType": "string[]",
                  "name": "userRoles",
                  "type": "string[]"
                },
                {
                  "components": [
                    {
                      "internalType": "string",
                      "name": "startDate",
                      "type": "string"
                    },
                    {
                      "internalType": "string",
                      "name": "endDate",
                      "type": "string"
                    }
                  ],
                  "internalType": "struct ContextAwareAccessControl.DatePeriod",
                  "name": "datePeriod",
                  "type": "tuple"
                },
                {
                  "components": [
                    {
                      "internalType": "string",
                      "name": "startTime",
                      "type": "string"
                    },
                    {
                      "internalType": "string",
                      "name": "endTime",
                      "type": "string"
                    }
                  ],
                  "internalType": "struct ContextAwareAccessControl.TimePeriod",
                  "name": "timePeriod",
                  "type": "tuple"
                },
                {
                  "internalType": "string[]",
                  "name": "weekdays",
                  "type": "string[]"
                },
                {
                  "components": [
                    {
                      "internalType": "int256",
                      "name": "latitude",
                      "type": "int256"
                    },
                    {
                      "internalType": "int256",
                      "name": "longitude",
                      "type": "int256"
                    },
                    {
                      "internalType": "uint256",
                      "name": "radius",
                      "type": "uint256"
                    }
                  ],
                  "internalType": "struct ContextAwareAccessControl.LocationRange",
                  "name": "locationRange",
                  "type": "tuple"
                },
                {
                  "internalType": "string[]",
                  "name": "places",
                  "type": "string[]"
                },
                {
                  "internalType": "string[]",
                  "name": "authorizedIPs",
                  "type": "string[]"
                }
              ],
              "internalType": "struct ContextAwareAccessControl.ContextConstraints",
              "name": "contextConstraints",
              "type": "tuple"
            },
            {
              "internalType": "string[]",
              "name": "actions",
              "type": "string[]"
            },
            {
              "internalType": "string",
              "name": "permissions",
              "type": "string"
            }
          ],
          "internalType": "struct ContextAwareAccessControl.PolicyRule",
          "name": "rule",
          "type": "tuple"
        }
      ],
      "stateMutability": "view",
      "type": "function",
      "constant": true
    },
    {
      "inputs": [
        {
          "internalType": "uint256",
          "name": "",
          "type": "uint256"
        }
      ],
      "name": "policyIds",
      "outputs": [
        {
          "internalType": "string",
          "name": "",
          "type": "string"
        }
      ],
      "stateMutability": "view",
      "type": "function",
      "constant": true
    },
    {
      "inputs": [
        {
          "internalType": "string",
          "name": "_policyId",
          "type": "string"
        },
        {
          "internalType": "string",
          "name": "_description",
          "type": "string"
        },
        {
          "internalType": "string",
          "name": "_version",
          "type": "string"
        },
        {
          "components": [
            {
              "internalType": "string",
              "name": "ruleId",
              "type": "string"
            },
            {
              "internalType": "string",
              "name": "effect",
              "type": "string"
            },
            {
              "internalType": "string[]",
              "name": "authorizedUsers",
              "type": "string[]"
            },
            {
              "internalType": "string[]",
              "name": "resources",
              "type": "string[]"
            },
            {
              "components": [
                {
                  "internalType": "string[]",
                  "name": "userRoles",
                  "type": "string[]"
                },
                {
                  "components": [
                    {
                      "internalType": "string",
                      "name": "startDate",
                      "type": "string"
                    },
                    {
                      "internalType": "string",
                      "name": "endDate",
                      "type": "string"
                    }
                  ],
                  "internalType": "struct ContextAwareAccessControl.DatePeriod",
                  "name": "datePeriod",
                  "type": "tuple"
                },
                {
                  "components": [
                    {
                      "internalType": "string",
                      "name": "startTime",
                      "type": "string"
                    },
                    {
                      "internalType": "string",
                      "name": "endTime",
                      "type": "string"
                    }
                  ],
                  "internalType": "struct ContextAwareAccessControl.TimePeriod",
                  "name": "timePeriod",
                  "type": "tuple"
                },
                {
                  "internalType": "string[]",
                  "name": "weekdays",
                  "type": "string[]"
                },
                {
                  "components": [
                    {
                      "internalType": "int256",
                      "name": "latitude",
                      "type": "int256"
                    },
                    {
                      "internalType": "int256",
                      "name": "longitude",
                      "type": "int256"
                    },
                    {
                      "internalType": "uint256",
                      "name": "radius",
                      "type": "uint256"
                    }
                  ],
                  "internalType": "struct ContextAwareAccessControl.LocationRange",
                  "name": "locationRange",
                  "type": "tuple"
                },
                {
                  "internalType": "string[]",
                  "name": "places",
                  "type": "string[]"
                },
                {
                  "internalType": "string[]",
                  "name": "authorizedIPs",
                  "type": "string[]"
                }
              ],
              "internalType": "struct ContextAwareAccessControl.ContextConstraints",
              "name": "contextConstraints",
              "type": "tuple"
            },
            {
              "internalType": "string[]",
              "name": "actions",
              "type": "string[]"
            },
            {
              "internalType": "string",
              "name": "permissions",
              "type": "string"
            }
          ],
          "internalType": "struct ContextAwareAccessControl.PolicyRule",
          "name": "_rule",
          "type": "tuple"
        }
      ],
      "name": "addPolicy",
      "outputs": [],
      "stateMutability": "nonpayable",
      "type": "function"
    },
    {
      "inputs": [],
      "name": "getAllPolicyIds",
      "outputs": [
        {
          "internalType": "string[]",
          "name": "",
          "type": "string[]"
        }
      ],
      "stateMutability": "view",
      "type": "function",
      "constant": true
    },
    {
      "inputs": [
        {
          "internalType": "string",
          "name": "policyId",
          "type": "string"
        }
      ],
      "name": "getPolicy",
      "outputs": [
        {
          "internalType": "string",
          "name": "",
          "type": "string"
        },
        {
          "internalType": "string",
          "name": "",
          "type": "string"
        },
        {
          "internalType": "string",
          "name": "",
          "type": "string"
        },
        {
          "components": [
            {
              "internalType": "string",
              "name": "ruleId",
              "type": "string"
            },
            {
              "internalType": "string",
              "name": "effect",
              "type": "string"
            },
            {
              "internalType": "string[]",
              "name": "authorizedUsers",
              "type": "string[]"
            },
            {
              "internalType": "string[]",
              "name": "resources",
              "type": "string[]"
            },
            {
              "components": [
                {
                  "internalType": "string[]",
                  "name": "userRoles",
                  "type": "string[]"
                },
                {
                  "components": [
                    {
                      "internalType": "string",
                      "name": "startDate",
                      "type": "string"
                    },
                    {
                      "internalType": "string",
                      "name": "endDate",
                      "type": "string"
                    }
                  ],
                  "internalType": "struct ContextAwareAccessControl.DatePeriod",
                  "name": "datePeriod",
                  "type": "tuple"
                },
                {
                  "components": [
                    {
                      "internalType": "string",
                      "name": "startTime",
                      "type": "string"
                    },
                    {
                      "internalType": "string",
                      "name": "endTime",
                      "type": "string"
                    }
                  ],
                  "internalType": "struct ContextAwareAccessControl.TimePeriod",
                  "name": "timePeriod",
                  "type": "tuple"
                },
                {
                  "internalType": "string[]",
                  "name": "weekdays",
                  "type": "string[]"
                },
                {
                  "components": [
                    {
                      "internalType": "int256",
                      "name": "latitude",
                      "type": "int256"
                    },
                    {
                      "internalType": "int256",
                      "name": "longitude",
                      "type": "int256"
                    },
                    {
                      "internalType": "uint256",
                      "name": "radius",
                      "type": "uint256"
                    }
                  ],
                  "internalType": "struct ContextAwareAccessControl.LocationRange",
                  "name": "locationRange",
                  "type": "tuple"
                },
                {
                  "internalType": "string[]",
                  "name": "places",
                  "type": "string[]"
                },
                {
                  "internalType": "string[]",
                  "name": "authorizedIPs",
                  "type": "string[]"
                }
              ],
              "internalType": "struct ContextAwareAccessControl.ContextConstraints",
              "name": "contextConstraints",
              "type": "tuple"
            },
            {
              "internalType": "string[]",
              "name": "actions",
              "type": "string[]"
            },
            {
              "internalType": "string",
              "name": "permissions",
              "type": "string"
            }
          ],
          "internalType": "struct ContextAwareAccessControl.PolicyRule",
          "name": "",
          "type": "tuple"
        }
      ],
      "stateMutability": "view",
      "type": "function",
      "constant": true
    },
    {
      "inputs": [
        {
          "internalType": "string",
          "name": "policyId",
          "type": "string"
        },
        {
          "internalType": "string",
          "name": "userId",
          "type": "string"
        },
        {
          "internalType": "string",
          "name": "resourceName",
          "type": "string"
        },
        {
          "internalType": "string",
          "name": "action",
          "type": "string"
        },
        {
          "internalType": "string",
          "name": "userRole",
          "type": "string"
        },
        {
          "internalType": "string",
          "name": "currentTime",
          "type": "string"
        },
        {
          "internalType": "string",
          "name": "currentDay",
          "type": "string"
        },
        {
          "internalType": "int256",
          "name": "latitude",
          "type": "int256"
        },
        {
          "internalType": "int256",
          "name": "longitude",
          "type": "int256"
        },
        {
          "internalType": "string",
          "name": "place",
          "type": "string"
        }
      ],
      "name": "enforcePolicy",
      "outputs": [
        {
          "internalType": "bool",
          "name": "",
          "type": "bool"
        },
        {
          "internalType": "string",
          "name": "",
          "type": "string"
        }
      ],
      "stateMutability": "view",
      "type": "function",
      "constant": true
    }
  ],
  "bytecode": "0x608060405234801561001057600080fd5b5033600160006101000a81548173ffffffffffffffffffffffffffffffffffffffff021916908373ffffffffffffffffffffffffffffffffffffffff16021790555061466b806100616000396000f3fe608060405234801561001057600080fd5b506004361061007d5760003560e01c80634b2549241161005b5780634b2549241461010157806360dd5f901461011f5780638da5cb5b14610152578063bda07a71146101705761007d565b806317f85e86146100825780632f500f6c1461009e5780634a7ba3e5146100ce575b600080fd5b61009c60048036038101906100979190613809565b6101a1565b005b6100b860048036038101906100b391906138cc565b610615565b6040516100c59190614038565b60405180910390f35b6100e860048036038101906100e3919061362d565b6106c1565b6040516100f89493929190614091565b60405180910390f35b610109611304565b6040516101169190613fe6565b60405180910390f35b6101396004803603810190610134919061362d565b6113dd565b6040516101499493929190614091565b60405180910390f35b61015a61208b565b6040516101679190613fcb565b60405180910390f35b61018a6004803603810190610185919061366e565b6120b1565b604051610198929190614008565b60405180910390f35b600160009054906101000a900473ffffffffffffffffffffffffffffffffffffffff1673ffffffffffffffffffffffffffffffffffffffff163373ffffffffffffffffffffffffffffffffffffffff1614610231576040517f08c379a0000000000000000000000000000000000000000000000000000000008152600401610228906140f2565b60405180910390fd5b6000845111610275576040517f08c379a000000000000000000000000000000000000000000000000000000000815260040161026c90614172565b60405180910390fd5b60008351116102b9576040517f08c379a00000000000000000000000000000000000000000000000000000000081526004016102b090614112565b60405180910390fd5b60008251116102fd576040517f08c379a00000000000000000000000000000000000000000000000000000000081526004016102f490614152565b60405180910390fd5b600284908060018154018082558091505060019003906000526020600020016000909190919091509080519060200190610338929190612ed4565b506000808560405161034a9190613f88565b9081526020016040518091039020905084816000019080519060200190610372929190612ed4565b508381600101908051906020019061038b929190612ed4565b50828160020190805190602001906103a4929190612ed4565b5081600001518160030160000190805190602001906103c4929190612ed4565b5081602001518160030160010190805190602001906103e4929190612ed4565b508160400151816003016002019080519060200190610404929190612f5a565b508160600151816003016003019080519060200190610424929190612f5a565b5081608001516000015181600301600401600001908051906020019061044b929190612f5a565b5081608001516020015181600301600401600101600082015181600001908051906020019061047b929190612ed4565b506020820151816001019080519060200190610498929190612ed4565b509050508160800151604001518160030160040160030160008201518160000190805190602001906104cb929190612ed4565b5060208201518160010190805190602001906104e8929190612ed4565b50905050816080015160600151816003016004016005019080519060200190610512929190612f5a565b5081608001516080015181600301600401600601600082015181600001556020820151816001015560408201518160020155905050816080015160a0015181600301600401600901908051906020019061056d929190612f5a565b50816080015160c0015181600301600401600a019080519060200190610594929190612f5a565b508160a0015181600301600f0190805190602001906105b4929190612f5a565b508160c001518160030160100190805190602001906105d4929190612ed4565b507f22825794fdd7f81406081b1a304aabca4492f23624cd86bbd182e45eed4f5330858560405161060692919061405a565b60405180910390a15050505050565b6002818154811061062557600080fd5b906000526020600020016000915090508054610640906144cd565b80601f016020809104026020016040519081016040528092919081815260200182805461066c906144cd565b80156106b95780601f1061068e576101008083540402835291602001916106b9565b820191906000526020600020905b81548152906001019060200180831161069c57829003601f168201915b505050505081565b6000818051602081018201805184825260208301602085012081835280955050505050506000915090508060000180546106fa906144cd565b80601f0160208091040260200160405190810160405280929190818152602001828054610726906144cd565b80156107735780601f1061074857610100808354040283529160200191610773565b820191906000526020600020905b81548152906001019060200180831161075657829003601f168201915b505050505090806001018054610788906144cd565b80601f01602080910402602001604051908101604052809291908181526020018280546107b4906144cd565b80156108015780601f106107d657610100808354040283529160200191610801565b820191906000526020600020905b8154815290600101906020018083116107e457829003601f168201915b505050505090806002018054610816906144cd565b80601f0160208091040260200160405190810160405280929190818152602001828054610842906144cd565b801561088f5780601f106108645761010080835404028352916020019161088f565b820191906000526020600020905b81548152906001019060200180831161087257829003601f168201915b505050505090806003016040518060e00160405290816000820180546108b4906144cd565b80601f01602080910402602001604051908101604052809291908181526020018280546108e0906144cd565b801561092d5780601f106109025761010080835404028352916020019161092d565b820191906000526020600020905b81548152906001019060200180831161091057829003601f168201915b50505050508152602001600182018054610946906144cd565b80601f0160208091040260200160405190810160405280929190818152602001828054610972906144cd565b80156109bf5780601f10610994576101008083540402835291602001916109bf565b820191906000526020600020905b8154815290600101906020018083116109a257829003601f168201915b5050505050815260200160028201805480602002602001604051908101604052809291908181526020016000905b82821015610a99578382906000526020600020018054610a0c906144cd565b80601f0160208091040260200160405190810160405280929190818152602001828054610a38906144cd565b8015610a855780601f10610a5a57610100808354040283529160200191610a85565b820191906000526020600020905b815481529060010190602001808311610a6857829003601f168201915b5050505050815260200190600101906109ed565b50505050815260200160038201805480602002602001604051908101604052809291908181526020016000905b82821015610b72578382906000526020600020018054610ae5906144cd565b80601f0160208091040260200160405190810160405280929190818152602001828054610b11906144cd565b8015610b5e5780601f10610b3357610100808354040283529160200191610b5e565b820191906000526020600020905b815481529060010190602001808311610b4157829003601f168201915b505050505081526020019060010190610ac6565b505050508152602001600482016040518060e001604052908160008201805480602002602001604051908101604052809291908181526020016000905b82821015610c5b578382906000526020600020018054610bce906144cd565b80601f0160208091040260200160405190810160405280929190818152602001828054610bfa906144cd565b8015610c475780601f10610c1c57610100808354040283529160200191610c47565b820191906000526020600020905b815481529060010190602001808311610c2a57829003601f168201915b505050505081526020019060010190610baf565b50505050815260200160018201604051806040016040529081600082018054610c83906144cd565b80601f0160208091040260200160405190810160405280929190818152602001828054610caf906144cd565b8015610cfc5780601f10610cd157610100808354040283529160200191610cfc565b820191906000526020600020905b815481529060010190602001808311610cdf57829003601f168201915b50505050508152602001600182018054610d15906144cd565b80601f0160208091040260200160405190810160405280929190818152602001828054610d41906144cd565b8015610d8e5780601f10610d6357610100808354040283529160200191610d8e565b820191906000526020600020905b815481529060010190602001808311610d7157829003601f168201915b505050505081525050815260200160038201604051806040016040529081600082018054610dbb906144cd565b80601f0160208091040260200160405190810160405280929190818152602001828054610de7906144cd565b8015610e345780601f10610e0957610100808354040283529160200191610e34565b820191906000526020600020905b815481529060010190602001808311610e1757829003601f168201915b50505050508152602001600182018054610e4d906144cd565b80601f0160208091040260200160405190810160405280929190818152602001828054610e79906144cd565b8015610ec65780601f10610e9b57610100808354040283529160200191610ec6565b820191906000526020600020905b815481529060010190602001808311610ea957829003601f168201915b505050505081525050815260200160058201805480602002602001604051908101604052809291908181526020016000905b82821015610fa4578382906000526020600020018054610f17906144cd565b80601f0160208091040260200160405190810160405280929190818152602001828054610f43906144cd565b8015610f905780601f10610f6557610100808354040283529160200191610f90565b820191906000526020600020905b815481529060010190602001808311610f7357829003601f168201915b505050505081526020019060010190610ef8565b505050508152602001600682016040518060600160405290816000820154815260200160018201548152602001600282015481525050815260200160098201805480602002602001604051908101604052809291908181526020016000905b828210156110af578382906000526020600020018054611022906144cd565b80601f016020809104026020016040519081016040528092919081815260200182805461104e906144cd565b801561109b5780601f106110705761010080835404028352916020019161109b565b820191906000526020600020905b81548152906001019060200180831161107e57829003601f168201915b505050505081526020019060010190611003565b505050508152602001600a8201805480602002602001604051908101604052809291908181526020016000905b828210156111885783829060005260206000200180546110fb906144cd565b80601f0160208091040260200160405190810160405280929190818152602001828054611127906144cd565b80156111745780601f1061114957610100808354040283529160200191611174565b820191906000526020600020905b81548152906001019060200180831161115757829003601f168201915b5050505050815260200190600101906110dc565b50505050815250508152602001600f8201805480602002602001604051908101604052809291908181526020016000905b828210156112655783829060005260206000200180546111d8906144cd565b80601f0160208091040260200160405190810160405280929190818152602001828054611204906144cd565b80156112515780601f1061122657610100808354040283529160200191611251565b820191906000526020600020905b81548152906001019060200180831161123457829003601f168201915b5050505050815260200190600101906111b9565b50505050815260200160108201805461127d906144cd565b80601f01602080910402602001604051908101604052809291908181526020018280546112a9906144cd565b80156112f65780601f106112cb576101008083540402835291602001916112f6565b820191906000526020600020905b8154815290600101906020018083116112d957829003601f168201915b505050505081525050905084565b60606002805480602002602001604051908101604052809291908181526020016000905b828210156113d4578382906000526020600020018054611347906144cd565b80601f0160208091040260200160405190810160405280929190818152602001828054611373906144cd565b80156113c05780601f10611395576101008083540402835291602001916113c0565b820191906000526020600020905b8154815290600101906020018083116113a357829003601f168201915b505050505081526020019060010190611328565b50505050905090565b60608060606113ea612fba565b600080866040516113fb9190613f88565b90815260200160405180910390209050600081600001805461141c906144cd565b90501161145e576040517f08c379a000000000000000000000000000000000000000000000000000000000815260040161145590614132565b60405180910390fd5b8060000181600101826002018360030183805461147a906144cd565b80601f01602080910402602001604051908101604052809291908181526020018280546114a6906144cd565b80156114f35780601f106114c8576101008083540402835291602001916114f3565b820191906000526020600020905b8154815290600101906020018083116114d657829003601f168201915b50505050509350828054611506906144cd565b80601f0160208091040260200160405190810160405280929190818152602001828054611532906144cd565b801561157f5780601f106115545761010080835404028352916020019161157f565b820191906000526020600020905b81548152906001019060200180831161156257829003601f168201915b50505050509250818054611592906144cd565b80601f01602080910402602001604051908101604052809291908181526020018280546115be906144cd565b801561160b5780601f106115e05761010080835404028352916020019161160b565b820191906000526020600020905b8154815290600101906020018083116115ee57829003601f168201915b50505050509150806040518060e001604052908160008201805461162e906144cd565b80601f016020809104026020016040519081016040528092919081815260200182805461165a906144cd565b80156116a75780601f1061167c576101008083540402835291602001916116a7565b820191906000526020600020905b81548152906001019060200180831161168a57829003601f168201915b505050505081526020016001820180546116c0906144cd565b80601f01602080910402602001604051908101604052809291908181526020018280546116ec906144cd565b80156117395780601f1061170e57610100808354040283529160200191611739565b820191906000526020600020905b81548152906001019060200180831161171c57829003601f168201915b5050505050815260200160028201805480602002602001604051908101604052809291908181526020016000905b82821015611813578382906000526020600020018054611786906144cd565b80601f01602080910402602001604051908101604052809291908181526020018280546117b2906144cd565b80156117ff5780601f106117d4576101008083540402835291602001916117ff565b820191906000526020600020905b8154815290600101906020018083116117e257829003601f168201915b505050505081526020019060010190611767565b50505050815260200160038201805480602002602001604051908101604052809291908181526020016000905b828210156118ec57838290600052602060002001805461185f906144cd565b80601f016020809104026020016040519081016040528092919081815260200182805461188b906144cd565b80156118d85780601f106118ad576101008083540402835291602001916118d8565b820191906000526020600020905b8154815290600101906020018083116118bb57829003601f168201915b505050505081526020019060010190611840565b505050508152602001600482016040518060e001604052908160008201805480602002602001604051908101604052809291908181526020016000905b828210156119d5578382906000526020600020018054611948906144cd565b80601f0160208091040260200160405190810160405280929190818152602001828054611974906144cd565b80156119c15780601f10611996576101008083540402835291602001916119c1565b820191906000526020600020905b8154815290600101906020018083116119a457829003601f168201915b505050505081526020019060010190611929565b505050508152602001600182016040518060400160405290816000820180546119fd906144cd565b80601f0160208091040260200160405190810160405280929190818152602001828054611a29906144cd565b8015611a765780601f10611a4b57610100808354040283529160200191611a76565b820191906000526020600020905b815481529060010190602001808311611a5957829003601f168201915b50505050508152602001600182018054611a8f906144cd565b80601f0160208091040260200160405190810160405280929190818152602001828054611abb906144cd565b8015611b085780601f10611add57610100808354040283529160200191611b08565b820191906000526020600020905b815481529060010190602001808311611aeb57829003601f168201915b505050505081525050815260200160038201604051806040016040529081600082018054611b35906144cd565b80601f0160208091040260200160405190810160405280929190818152602001828054611b61906144cd565b8015611bae5780601f10611b8357610100808354040283529160200191611bae565b820191906000526020600020905b815481529060010190602001808311611b9157829003601f168201915b50505050508152602001600182018054611bc7906144cd565b80601f0160208091040260200160405190810160405280929190818152602001828054611bf3906144cd565b8015611c405780601f10611c1557610100808354040283529160200191611c40565b820191906000526020600020905b815481529060010190602001808311611c2357829003601f168201915b505050505081525050815260200160058201805480602002602001604051908101604052809291908181526020016000905b82821015611d1e578382906000526020600020018054611c91906144cd565b80601f0160208091040260200160405190810160405280929190818152602001828054611cbd906144cd565b8015611d0a5780601f10611cdf57610100808354040283529160200191611d0a565b820191906000526020600020905b815481529060010190602001808311611ced57829003601f168201915b505050505081526020019060010190611c72565b505050508152602001600682016040518060600160405290816000820154815260200160018201548152602001600282015481525050815260200160098201805480602002602001604051908101604052809291908181526020016000905b82821015611e29578382906000526020600020018054611d9c906144cd565b80601f0160208091040260200160405190810160405280929190818152602001828054611dc8906144cd565b8015611e155780601f10611dea57610100808354040283529160200191611e15565b820191906000526020600020905b815481529060010190602001808311611df857829003601f168201915b505050505081526020019060010190611d7d565b505050508152602001600a8201805480602002602001604051908101604052809291908181526020016000905b82821015611f02578382906000526020600020018054611e75906144cd565b80601f0160208091040260200160405190810160405280929190818152602001828054611ea1906144cd565b8015611eee5780601f10611ec357610100808354040283529160200191611eee565b820191906000526020600020905b815481529060010190602001808311611ed157829003601f168201915b505050505081526020019060010190611e56565b50505050815250508152602001600f8201805480602002602001604051908101604052809291908181526020016000905b82821015611fdf578382906000526020600020018054611f52906144cd565b80601f0160208091040260200160405190810160405280929190818152602001828054611f7e906144cd565b8015611fcb5780601f10611fa057610100808354040283529160200191611fcb565b820191906000526020600020905b815481529060010190602001808311611fae57829003601f168201915b505050505081526020019060010190611f33565b505050508152602001601082018054611ff7906144cd565b80601f0160208091040260200160405190810160405280929190818152602001828054612023906144cd565b80156120705780601f1061204557610100808354040283529160200191612070565b820191906000526020600020905b81548152906001019060200180831161205357829003601f168201915b50505050508152505090509450945094509450509193509193565b600160009054906101000a900473ffffffffffffffffffffffffffffffffffffffff1681565b600060606000808d6040516120c69190613f88565b9081526020016040518091039020905060008160030190506000805b82600301805490508110156121a6578d6040516020016121029190613f88565b60405160208183030381529060405280519060200120836003018281548110612154577f4e487b7100000000000000000000000000000000000000000000000000000000600052603260045260246000fd5b9060005260206000200160405160200161216e9190613f9f565b60405160208183030381529060405280519060200120141561219357600191506121a6565b808061219e906144ff565b9150506120e2565b50806121f05760006040518060400160405280601781526020017f5265736f75726365206e6f7420617574686f72697a656400000000000000000081525094509450505050612c3e565b6000805b83600201805490508110156122b8578f6040516020016122149190613f88565b60405160208183030381529060405280519060200120846002018281548110612266577f4e487b7100000000000000000000000000000000000000000000000000000000600052603260045260246000fd5b906000526020600020016040516020016122809190613f9f565b6040516020818303038152906040528051906020012014156122a557600191506122b8565b80806122b0906144ff565b9150506121f4565b50806123035760006040518060400160405280601381526020017f55736572206e6f7420617574686f72697a6564000000000000000000000000008152509550955050505050612c3e565b60405160200161231290613fb6565b6040516020818303038152906040528051906020012083600401600001600081548110612368577f4e487b7100000000000000000000000000000000000000000000000000000000600052603260045260246000fd5b906000526020600020016040516020016123829190613f9f565b60405160208183030381529060405280519060200120146124b9576000805b846004016000018054905081101561246b578d6040516020016123c49190613f88565b60405160208183030381529060405280519060200120856004016000018281548110612419577f4e487b7100000000000000000000000000000000000000000000000000000000600052603260045260246000fd5b906000526020600020016040516020016124339190613f9f565b604051602081830303815290604052805190602001201415612458576001915061246b565b8080612463906144ff565b9150506123a1565b50806124b75760006040518060400160405280601881526020017f5573657220726f6c65206e6f7420617574686f72697a65640000000000000000815250965096505050505050612c3e565b505b6040516020016124c890613fb6565b60405160208183030381529060405280519060200120836004016003016000016040516020016124f89190613f9f565b604051602081830303815290604052805190602001201415801561256f575060405160200161252690613fb6565b60405160208183030381529060405280519060200120836004016003016001016040516020016125569190613f9f565b6040516020818303038152906040528051906020012014155b1561271d57600061257f8c612c4d565b9050600061261e85600401600301600001805461259b906144cd565b80601f01602080910402602001604051908101604052809291908181526020018280546125c7906144cd565b80156126145780601f106125e957610100808354040283529160200191612614565b820191906000526020600020905b8154815290600101906020018083116125f757829003601f168201915b5050505050612c4d565b905060006126bd86600401600301600101805461263a906144cd565b80601f0160208091040260200160405190810160405280929190818152602001828054612666906144cd565b80156126b35780601f10612688576101008083540402835291602001916126b3565b820191906000526020600020905b81548152906001019060200180831161269657829003601f168201915b5050505050612c4d565b9050818310806126cc57508083115b156127195760006040518060400160405280601d81526020017f54696d6520636f6e73747261696e74206e6f74207361746973666965640000008152509850985050505050505050612c3e565b5050505b60405160200161272c90613fb6565b6040516020818303038152906040528051906020012083600401600501600081548110612782577f4e487b7100000000000000000000000000000000000000000000000000000000600052603260045260246000fd5b9060005260206000200160405160200161279c9190613f9f565b60405160208183030381529060405280519060200120146128d3576000805b8460040160050180549050811015612885578b6040516020016127de9190613f88565b60405160208183030381529060405280519060200120856004016005018281548110612833577f4e487b7100000000000000000000000000000000000000000000000000000000600052603260045260246000fd5b9060005260206000200160405160200161284d9190613f9f565b6040516020818303038152906040528051906020012014156128725760019150612885565b808061287d906144ff565b9150506127bb565b50806128d15760006040518060400160405280602081526020017f5765656b64617920636f6e73747261696e74206e6f7420736174697366696564815250965096505050505050612c3e565b505b600083600401600601600201541415801561290f57506000836004016006016000015414158061290e57506000836004016006016001015414155b5b1561297757600083600401600601600001549050600084600401600601600101549050600085600401600601600201549050600015612973576000604051806060016040528060218152602001614615602191399850985050505050505050612c3e565b5050505b60405160200161298690613fb6565b60405160208183030381529060405280519060200120836004016009016000815481106129dc577f4e487b7100000000000000000000000000000000000000000000000000000000600052603260045260246000fd5b906000526020600020016040516020016129f69190613f9f565b6040516020818303038152906040528051906020012014612af8576000805b8460040160090180549050811015612adf5788604051602001612a389190613f88565b60405160208183030381529060405280519060200120856004016009018281548110612a8d577f4e487b7100000000000000000000000000000000000000000000000000000000600052603260045260246000fd5b90600052602060002001604051602001612aa79190613f9f565b604051602081830303815290604052805190602001201415612acc5760019150612adf565b8080612ad7906144ff565b915050612a15565b5080612af657600088965096505050505050612c3e565b505b60005b83600f0180549050811015612bfc578d604051602001612b1b9190613f88565b6040516020818303038152906040528051906020012084600f018281548110612b6d577f4e487b7100000000000000000000000000000000000000000000000000000000600052603260045260246000fd5b90600052602060002001604051602001612b879190613f9f565b604051602081830303815290604052805190602001201415612be95760016040518060400160405280600e81526020017f416363657373206772616e746564000000000000000000000000000000000000815250965096505050505050612c3e565b8080612bf4906144ff565b915050612afb565b5060006040518060400160405280601581526020017f416374696f6e206e6f7420617574686f72697a6564000000000000000000000081525095509550505050505b9a509a98505050505050505050565b60008082905060058151148015612ce957507f3a0000000000000000000000000000000000000000000000000000000000000081600281518110612cba577f4e487b7100000000000000000000000000000000000000000000000000000000600052603260045260246000fd5b602001015160f81c60f81b7effffffffffffffffffffffffffffffffffffffffffffffffffffffffffffff1916145b612d28576040517f08c379a0000000000000000000000000000000000000000000000000000000008152600401612d1f90614192565b60405180910390fd5b6000603082600181518110612d66577f4e487b7100000000000000000000000000000000000000000000000000000000600052603260045260246000fd5b602001015160f81c60f81b60f81c612d7e91906143f8565b600a603084600081518110612dbc577f4e487b7100000000000000000000000000000000000000000000000000000000600052603260045260246000fd5b602001015160f81c60f81b60f81c612dd491906143f8565b612dde91906143bd565b612de8919061432c565b60ff1690506000603083600481518110612e2b577f4e487b7100000000000000000000000000000000000000000000000000000000600052603260045260246000fd5b602001015160f81c60f81b60f81c612e4391906143f8565b600a603085600381518110612e81577f4e487b7100000000000000000000000000000000000000000000000000000000600052603260045260246000fd5b602001015160f81c60f81b60f81c612e9991906143f8565b612ea391906143bd565b612ead919061432c565b60ff16905080603c83612ec09190614363565b612eca91906142d6565b9350505050919050565b828054612ee0906144cd565b90600052602060002090601f016020900481019282612f025760008555612f49565b82601f10612f1b57805160ff1916838001178555612f49565b82800160010185558215612f49579182015b82811115612f48578251825591602001919060010190612f2d565b5b509050612f569190612ffd565b5090565b828054828255906000526020600020908101928215612fa9579160200282015b82811115612fa8578251829080519060200190612f98929190612ed4565b5091602001919060010190612f7a565b5b509050612fb6919061301a565b5090565b6040518060e0016040528060608152602001606081526020016060815260200160608152602001612fe961303e565b815260200160608152602001606081525090565b5b80821115613016576000816000905550600101612ffe565b5090565b5b8082111561303a5760008181613031919061308d565b5060010161301b565b5090565b6040518060e00160405280606081526020016130586130cd565b81526020016130656130e7565b815260200160608152602001613079613101565b815260200160608152602001606081525090565b508054613099906144cd565b6000825580601f106130ab57506130ca565b601f0160209004906000526020600020908101906130c99190612ffd565b5b50565b604051806040016040528060608152602001606081525090565b604051806040016040528060608152602001606081525090565b60405180606001604052806000815260200160008152602001600081525090565b6000613135613130846141e3565b6141b2565b9050808382526020820190508260005b85811015613175578135850161315b88826131fc565b845260208401935060208301925050600181019050613145565b5050509392505050565b600061319261318d8461420f565b6141b2565b9050828152602081018484840111156131aa57600080fd5b6131b584828561448b565b509392505050565b600082601f8301126131ce57600080fd5b81356131de848260208601613122565b91505092915050565b6000813590506131f6816145e6565b92915050565b600082601f83011261320d57600080fd5b813561321d84826020860161317f565b91505092915050565b6000610120828403121561323957600080fd5b61324360e06141b2565b9050600082013567ffffffffffffffff81111561325f57600080fd5b61326b848285016131bd565b600083015250602082013567ffffffffffffffff81111561328b57600080fd5b61329784828501613368565b602083015250604082013567ffffffffffffffff8111156132b757600080fd5b6132c38482850161359c565b604083015250606082013567ffffffffffffffff8111156132e357600080fd5b6132ef848285016131bd565b6060830152506080613303848285016133e4565b60808301525060e082013567ffffffffffffffff81111561332357600080fd5b61332f848285016131bd565b60a08301525061010082013567ffffffffffffffff81111561335057600080fd5b61335c848285016131bd565b60c08301525092915050565b60006040828403121561337a57600080fd5b61338460406141b2565b9050600082013567ffffffffffffffff8111156133a057600080fd5b6133ac848285016131fc565b600083015250602082013567ffffffffffffffff8111156133cc57600080fd5b6133d8848285016131fc565b60208301525092915050565b6000606082840312156133f657600080fd5b61340060606141b2565b90506000613410848285016131e7565b6000830152506020613424848285016131e7565b602083015250604061343884828501613618565b60408301525092915050565b600060e0828403121561345657600080fd5b61346060e06141b2565b9050600082013567ffffffffffffffff81111561347c57600080fd5b613488848285016131fc565b600083015250602082013567ffffffffffffffff8111156134a857600080fd5b6134b4848285016131fc565b602083015250604082013567ffffffffffffffff8111156134d457600080fd5b6134e0848285016131bd565b604083015250606082013567ffffffffffffffff81111561350057600080fd5b61350c848285016131bd565b606083015250608082013567ffffffffffffffff81111561352c57600080fd5b61353884828501613226565b60808301525060a082013567ffffffffffffffff81111561355857600080fd5b613564848285016131bd565b60a08301525060c082013567ffffffffffffffff81111561358457600080fd5b613590848285016131fc565b60c08301525092915050565b6000604082840312156135ae57600080fd5b6135b860406141b2565b9050600082013567ffffffffffffffff8111156135d457600080fd5b6135e0848285016131fc565b600083015250602082013567ffffffffffffffff81111561360057600080fd5b61360c848285016131fc565b60208301525092915050565b600081359050613627816145fd565b92915050565b60006020828403121561363f57600080fd5b600082013567ffffffffffffffff81111561365957600080fd5b613665848285016131fc565b91505092915050565b6000806000806000806000806000806101408b8d03121561368e57600080fd5b60008b013567ffffffffffffffff8111156136a857600080fd5b6136b48d828e016131fc565b9a505060208b013567ffffffffffffffff8111156136d157600080fd5b6136dd8d828e016131fc565b99505060408b013567ffffffffffffffff8111156136fa57600080fd5b6137068d828e016131fc565b98505060608b013567ffffffffffffffff81111561372357600080fd5b61372f8d828e016131fc565b97505060808b013567ffffffffffffffff81111561374c57600080fd5b6137588d828e016131fc565b96505060a08b013567ffffffffffffffff81111561377557600080fd5b6137818d828e016131fc565b95505060c08b013567ffffffffffffffff81111561379e57600080fd5b6137aa8d828e016131fc565b94505060e06137bb8d828e016131e7565b9350506101006137cd8d828e016131e7565b9250506101208b013567ffffffffffffffff8111156137eb57600080fd5b6137f78d828e016131fc565b9150509295989b9194979a5092959850565b6000806000806080858703121561381f57600080fd5b600085013567ffffffffffffffff81111561383957600080fd5b613845878288016131fc565b945050602085013567ffffffffffffffff81111561386257600080fd5b61386e878288016131fc565b935050604085013567ffffffffffffffff81111561388b57600080fd5b613897878288016131fc565b925050606085013567ffffffffffffffff8111156138b457600080fd5b6138c087828801613444565b91505092959194509250565b6000602082840312156138de57600080fd5b60006138ec84828501613618565b91505092915050565b60006139018383613a20565b905092915050565b6139128161442c565b82525050565b600061392382614264565b61392d8185614287565b93508360208202850161393f8561423f565b8060005b8581101561397b578484038952815161395c85826138f5565b94506139678361427a565b925060208a01995050600181019050613943565b50829750879550505050505092915050565b600061399882614264565b6139a28185614298565b9350836020820285016139b48561423f565b8060005b858110156139f057848403895281516139d185826138f5565b94506139dc8361427a565b925060208a019950506001810190506139b8565b50829750879550505050505092915050565b613a0b8161443e565b82525050565b613a1a8161444a565b82525050565b6000613a2b8261426f565b613a3581856142a9565b9350613a4581856020860161449a565b613a4e816145d5565b840191505092915050565b6000613a648261426f565b613a6e81856142ba565b9350613a7e81856020860161449a565b613a87816145d5565b840191505092915050565b6000613a9d8261426f565b613aa781856142cb565b9350613ab781856020860161449a565b80840191505092915050565b60008154613ad0816144cd565b613ada81866142cb565b94506001821660008114613af55760018114613b0657613b39565b60ff19831686528186019350613b39565b613b0f8561424f565b60005b83811015613b3157815481890152600182019150602081019050613b12565b838801955050505b50505092915050565b6000613b4f6026836142ba565b91507f4f6e6c7920746865206f776e65722063616e20706572666f726d20746869732060008301527f616374696f6e00000000000000000000000000000000000000000000000000006020830152604082019050919050565b6000613bb5601b836142ba565b91507f4465736372697074696f6e2063616e6e6f7420626520656d70747900000000006000830152602082019050919050565b6000613bf56004836142cb565b91507f4e6f6e65000000000000000000000000000000000000000000000000000000006000830152600482019050919050565b6000613c356015836142ba565b91507f506f6c69637920646f6573206e6f7420657869737400000000000000000000006000830152602082019050919050565b6000613c756017836142ba565b91507f56657273696f6e2063616e6e6f7420626520656d7074790000000000000000006000830152602082019050919050565b6000613cb56019836142ba565b91507f506f6c6963792049442063616e6e6f7420626520656d707479000000000000006000830152602082019050919050565b6000613cf56013836142ba565b91507f496e76616c69642074696d6520666f726d6174000000000000000000000000006000830152602082019050919050565b6000610120830160008301518482036000860152613d468282613918565b91505060208301518482036020860152613d608282613de9565b91505060408301518482036040860152613d7a8282613f35565b91505060608301518482036060860152613d948282613918565b9150506080830151613da96080860182613e2d565b5060a083015184820360e0860152613dc18282613918565b91505060c0830151848203610100860152613ddc8282613918565b9150508091505092915050565b60006040830160008301518482036000860152613e068282613a20565b91505060208301518482036020860152613e208282613a20565b9150508091505092915050565b606082016000820151613e436000850182613a11565b506020820151613e566020850182613a11565b506040820151613e696040850182613f79565b50505050565b600060e0830160008301518482036000860152613e8c8282613a20565b91505060208301518482036020860152613ea68282613a20565b91505060408301518482036040860152613ec08282613918565b91505060608301518482036060860152613eda8282613918565b91505060808301518482036080860152613ef48282613d28565b91505060a083015184820360a0860152613f0e8282613918565b91505060c083015184820360c0860152613f288282613a20565b9150508091505092915050565b60006040830160008301518482036000860152613f528282613a20565b91505060208301518482036020860152613f6c8282613a20565b9150508091505092915050565b613f8281614474565b82525050565b6000613f948284613a92565b915081905092915050565b6000613fab8284613ac3565b915081905092915050565b6000613fc182613be8565b9150819050919050565b6000602082019050613fe06000830184613909565b92915050565b60006020820190508181036000830152614000818461398d565b905092915050565b600060408201905061401d6000830185613a02565b818103602083015261402f8184613a59565b90509392505050565b600060208201905081810360008301526140528184613a59565b905092915050565b600060408201905081810360008301526140748185613a59565b905081810360208301526140888184613a59565b90509392505050565b600060808201905081810360008301526140ab8187613a59565b905081810360208301526140bf8186613a59565b905081810360408301526140d38185613a59565b905081810360608301526140e78184613e6f565b905095945050505050565b6000602082019050818103600083015261410b81613b42565b9050919050565b6000602082019050818103600083015261412b81613ba8565b9050919050565b6000602082019050818103600083015261414b81613c28565b9050919050565b6000602082019050818103600083015261416b81613c68565b9050919050565b6000602082019050818103600083015261418b81613ca8565b9050919050565b600060208201905081810360008301526141ab81613ce8565b9050919050565b6000604051905081810181811067ffffffffffffffff821117156141d9576141d86145a6565b5b8060405250919050565b600067ffffffffffffffff8211156141fe576141fd6145a6565b5b602082029050602081019050919050565b600067ffffffffffffffff82111561422a576142296145a6565b5b601f19601f8301169050602081019050919050565b6000819050602082019050919050565b60008190508160005260206000209050919050565b600081519050919050565b600081519050919050565b6000602082019050919050565b600082825260208201905092915050565b600082825260208201905092915050565b600082825260208201905092915050565b600082825260208201905092915050565b600081905092915050565b60006142e182614474565b91506142ec83614474565b9250827fffffffffffffffffffffffffffffffffffffffffffffffffffffffffffffffff0382111561432157614320614548565b5b828201905092915050565b60006143378261447e565b91506143428361447e565b92508260ff0382111561435857614357614548565b5b828201905092915050565b600061436e82614474565b915061437983614474565b9250817fffffffffffffffffffffffffffffffffffffffffffffffffffffffffffffffff04831182151516156143b2576143b1614548565b5b828202905092915050565b60006143c88261447e565b91506143d38361447e565b92508160ff04831182151516156143ed576143ec614548565b5b828202905092915050565b60006144038261447e565b915061440e8361447e565b92508282101561442157614420614548565b5b828203905092915050565b600061443782614454565b9050919050565b60008115159050919050565b6000819050919050565b600073ffffffffffffffffffffffffffffffffffffffff82169050919050565b6000819050919050565b600060ff82169050919050565b82818337600083830152505050565b60005b838110156144b857808201518184015260208101905061449d565b838111156144c7576000848401525b50505050565b600060028204905060018216806144e557607f821691505b602082108114156144f9576144f8614577565b5b50919050565b600061450a82614474565b91507fffffffffffffffffffffffffffffffffffffffffffffffffffffffffffffffff82141561453d5761453c614548565b5b600182019050919050565b7f4e487b7100000000000000000000000000000000000000000000000000000000600052601160045260246000fd5b7f4e487b7100000000000000000000000000000000000000000000000000000000600052602260045260246000fd5b7f4e487b7100000000000000000000000000000000000000000000000000000000600052604160045260246000fd5b6000601f19601f8301169050919050565b6145ef8161444a565b81146145fa57600080fd5b50565b61460681614474565b811461461157600080fd5b5056fe4c6f636174696f6e20636f6e73747261696e74206e6f7420736174697366696564a26469706673582212203f77ceb14d8bb0e76c2e59f337ce2f5be02161c88fb0afc7ed87f966648101ea64736f6c63430008000033",
  "immutableReferences": {},
  "source": "// SPDX-License-Identifier: MIT\npragma solidity ^0.8.0;\n\ncontract ContextAwareAccessControl {\n    struct DatePeriod {\n        string startDate;\n        string endDate;\n    }\n\n    struct TimePeriod {\n        string startTime;\n        string endTime;\n    }\n\n    struct LocationRange {\n        int256 latitude;\n        int256 longitude;\n        uint256 radius;\n    }\n\n    struct Device {\n        string id;\n        string deviceType;\n    }\n\n    struct ContextConstraints {\n        string[] userRoles;\n        DatePeriod datePeriod;\n        TimePeriod timePeriod;\n        string[] weekdays;\n        LocationRange locationRange;\n        string[] places;\n        //Device[] devices;\n        string[] authorizedIPs;\n    }\n\n    struct PolicyRule {\n        string ruleId;\n        string effect; // \"enable\" or \"disable\"\n        string[] authorizedUsers;\n        string[] resources;\n        ContextConstraints contextConstraints;\n        string[] actions;\n        string permissions; // \"allow\" or \"deny\"\n    }\n\n    struct Policy {\n        string policyId;\n        string description;\n        string version;\n        PolicyRule rule; // Single PolicyRule object\n    }\n\n    mapping(string => Policy) public policies; // Maps policy ID to Policy\n    address public owner;\n\n    event PolicyAdded(string policyId, string description);\n    // Events\n    event AccessGranted(string policyId, string resourceName, string action);\n    event AccessDenied(string policyId, string resourceName, string action, string reason);\n\n    // Events for debugging\n    event DebugLog(string message, string policyId);\n    event AccessResult(string policyId, string resourceName, string action, string reason);\n\n\n    modifier onlyOwner() {\n        require(msg.sender == owner, \"Only the owner can perform this action\");\n        _;\n    }\n\n    constructor() {\n        owner = msg.sender; // Set the deployer as the owner/admin\n    }\n\n    string[] public policyIds; // Stores all policy IDs for easy retrieval\n\n    // Add a policy (Admin only)\n    function addPolicy(\n        string memory _policyId,\n        string memory _description,\n        string memory _version,\n        PolicyRule memory _rule\n    ) public onlyOwner {\n        require(bytes(_policyId).length > 0, \"Policy ID cannot be empty\");\n        require(bytes(_description).length > 0, \"Description cannot be empty\");\n        require(bytes(_version).length > 0, \"Version cannot be empty\");\n\n        //adding the policy ids into the policy id list\n        policyIds.push(_policyId);\n\n        Policy storage newPolicy = policies[_policyId];\n        newPolicy.policyId = _policyId;\n        newPolicy.description = _description;\n        newPolicy.version = _version;\n\n        // Copy rule data to storage\n        newPolicy.rule.ruleId = _rule.ruleId;\n        newPolicy.rule.effect = _rule.effect;\n        newPolicy.rule.authorizedUsers = _rule.authorizedUsers;\n        newPolicy.rule.resources = _rule.resources;\n        newPolicy.rule.contextConstraints.userRoles = _rule.contextConstraints.userRoles;\n        newPolicy.rule.contextConstraints.datePeriod = _rule.contextConstraints.datePeriod;\n        newPolicy.rule.contextConstraints.timePeriod = _rule.contextConstraints.timePeriod;\n        newPolicy.rule.contextConstraints.weekdays = _rule.contextConstraints.weekdays;\n        newPolicy.rule.contextConstraints.locationRange = _rule.contextConstraints.locationRange;\n        newPolicy.rule.contextConstraints.places = _rule.contextConstraints.places;\n        newPolicy.rule.contextConstraints.authorizedIPs = _rule.contextConstraints.authorizedIPs;\n\n      \n\n        newPolicy.rule.actions = _rule.actions;\n        newPolicy.rule.permissions = _rule.permissions;\n\n        emit PolicyAdded(_policyId, _description);\n    }\n\n     // Function to retrieve all policy IDs\n    function getAllPolicyIds() public view returns (string[] memory) {\n        return policyIds;\n    }\n\n     // Retrieve a policy by ID\n    function getPolicy(string memory policyId)\n        public\n        view\n        returns (\n            string memory,\n            string memory,\n            string memory,\n            PolicyRule memory\n        )\n    {\n        Policy storage policy = policies[policyId];\n        require(bytes(policy.policyId).length > 0, \"Policy does not exist\");\n\n        return (\n            policy.policyId,\n            policy.description,\n            policy.version,\n            policy.rule\n        );\n    }\n\n    //converting the time to minutes\n\n    // Helper: Parse time from string (HH:mm) and return total minutes\n    function parseTime(string memory time) internal pure returns (uint256) {\n        bytes memory timeBytes = bytes(time);\n\n        require(timeBytes.length == 5 && timeBytes[2] == \":\", \"Invalid time format\");\n        //converting the hours and min string to numbers\n        uint256 hrs = (uint8(timeBytes[0]) - 48) * 10 + (uint8(timeBytes[1]) - 48); // HH\n        uint256 mins = (uint8(timeBytes[3]) - 48) * 10 + (uint8(timeBytes[4]) - 48); // mm\n        return hrs * 60 + mins;\n    }\n    function enforcePolicy(\n        string memory policyId,\n        string memory userId,\n        string memory resourceName,\n        string memory action,\n        string memory userRole,\n        string memory currentTime,\n        string memory currentDay,\n        int256 latitude,\n        int256 longitude,\n        string memory place\n    ) public view returns (bool, string memory) {\n        // Fetch the policy using policyId\n        Policy storage policy = policies[policyId];\n        PolicyRule storage rule = policy.rule;\n\n        // Check resource\n        bool resourceMatch = false;\n        for (uint256 i = 0; i < rule.resources.length; i++) {\n            if (\n                keccak256(abi.encodePacked(rule.resources[i])) ==\n                keccak256(abi.encodePacked(resourceName))\n            ) {\n                resourceMatch = true;\n                break;\n            }\n        }\n        if (!resourceMatch) {\n            return (false, \"Resource not authorized\");\n        }\n\n        // Check user\n        bool userMatch = false;\n        for (uint256 i = 0; i < rule.authorizedUsers.length; i++) {\n            if (\n                keccak256(abi.encodePacked(rule.authorizedUsers[i])) ==\n                keccak256(abi.encodePacked(userId))\n            ) {\n                userMatch = true;\n                break;\n            }\n        }\n        if (!userMatch) {\n            return (false, \"User not authorized\");\n        }\n\n        // Check user role if specified\n        if (keccak256(abi.encodePacked(rule.contextConstraints.userRoles[0])) != keccak256(abi.encodePacked(\"None\"))) {\n            bool roleMatch = false;\n            for (uint256 i = 0; i < rule.contextConstraints.userRoles.length; i++) {\n                if (\n                    keccak256(abi.encodePacked(rule.contextConstraints.userRoles[i])) ==\n                    keccak256(abi.encodePacked(userRole))\n                ) {\n                    roleMatch = true;\n                    break;\n                }\n            }\n            if (!roleMatch) {\n                return (false, \"User role not authorized\");\n            }\n        }\n\n        // Check time constraint if specified\n        if (\n            keccak256(abi.encodePacked(rule.contextConstraints.timePeriod.startTime)) != keccak256(abi.encodePacked(\"None\")) &&\n            keccak256(abi.encodePacked(rule.contextConstraints.timePeriod.endTime)) != keccak256(abi.encodePacked(\"None\"))\n        ) {\n            uint256 currentMinutes = parseTime(currentTime);\n            uint256 startMinutes = parseTime(rule.contextConstraints.timePeriod.startTime);\n            uint256 endMinutes = parseTime(rule.contextConstraints.timePeriod.endTime);\n            if (currentMinutes < startMinutes || currentMinutes > endMinutes) {\n                return (false, \"Time constraint not satisfied\");\n            }\n        }\n\n        // Check weekdays if specified\n        if (keccak256(abi.encodePacked(rule.contextConstraints.weekdays[0])) != keccak256(abi.encodePacked(\"None\"))) {\n            bool dayMatch = false;\n            for (uint256 i = 0; i < rule.contextConstraints.weekdays.length; i++) {\n                if (\n                    keccak256(abi.encodePacked(rule.contextConstraints.weekdays[i])) ==\n                    keccak256(abi.encodePacked(currentDay))\n                ) {\n                    dayMatch = true;\n                    break;\n                }\n            }\n            if (!dayMatch) {\n                return (false, \"Weekday constraint not satisfied\");\n            }\n        }\n\n        // Check_location if specified\n        if (\n            rule.contextConstraints.locationRange.radius != 0 &&\n            (rule.contextConstraints.locationRange.latitude != 0 || rule.contextConstraints.locationRange.longitude != 0)\n        ) {\n            int256 lat1 = rule.contextConstraints.locationRange.latitude;\n            int256 lon1 = rule.contextConstraints.locationRange.longitude;\n            uint256 radius = rule.contextConstraints.locationRange.radius;\n\n            // Haversine formula check (to implement the isWithinDistance function in smart contract)\n            // Skipping actual implementation as Solidity has limitations on floating-point operations\n            // Placeholder logic: assume location matches for simplicity\n            if (false) {\n                return (false, \"Location constraint not satisfied\");\n            }\n        }\n       //check place\n       \n       if (keccak256(abi.encodePacked(rule.contextConstraints.places[0])) != keccak256(abi.encodePacked(\"None\"))) {\n            bool placeMatch = false;\n            for (uint256 i = 0; i < rule.contextConstraints.places.length; i++) {\n                if (\n                    keccak256(abi.encodePacked(rule.contextConstraints.places[i])) ==\n                    keccak256(abi.encodePacked(place))\n                ) {\n                    placeMatch = true;\n                    break;\n                }\n            }\n            if (!placeMatch) {\n                return (false, place);\n            }\n        }\n\n\n        // Check action\n        for (uint256 i = 0; i < rule.actions.length; i++) {\n            if (\n                keccak256(abi.encodePacked(rule.actions[i])) ==\n                keccak256(abi.encodePacked(action))\n            ) {\n                return (true, \"Access granted\");\n            }\n        }\n\n        return (false, \"Action not authorized\");\n    }\n}\n\n    \n\n\n\n\n   \n\n\n\n\n",
  "sourcePath": "/Users/mac/Desktop/mini_prject/mini_project/contracts/ContextAwareAccessControl.sol",
  "compiler": {
    "name": "solc",
    "version": "0.8.0+commit.c7dfd78e.Emscripten.clang"
  },
  "schemaVersion": "3.4.16",
  "updatedAt": "2024-12-13T18:59:13.738Z",
  "networkType": "ethereum",
  "devdoc": {
    "kind": "dev",
    "methods": {},
    "version": 1
  },
  "userdoc": {
    "kind": "user",
    "methods": {},
    "version": 1
  }
}