{
  "contractName": "ContextAwareAccessControl",
  "abi": [
    {
      "inputs": [],
      "stateMutability": "nonpayable",
      "type": "constructor"
    },
    {
      "anonymous": false,
      "inputs": [
        {
          "indexed": false,
          "internalType": "address",
          "name": "user",
          "type": "address"
        },
        {
          "indexed": false,
          "internalType": "string",
          "name": "resource",
          "type": "string"
        }
      ],
      "name": "AccessDenied",
      "type": "event"
    },
    {
      "anonymous": false,
      "inputs": [
        {
          "indexed": false,
          "internalType": "address",
          "name": "user",
          "type": "address"
        },
        {
          "indexed": false,
          "internalType": "string",
          "name": "resource",
          "type": "string"
        }
      ],
      "name": "AccessGranted",
      "type": "event"
    },
    {
      "anonymous": false,
      "inputs": [
        {
          "indexed": false,
          "internalType": "uint256",
          "name": "policyId",
          "type": "uint256"
        },
        {
          "indexed": false,
          "internalType": "string",
          "name": "description",
          "type": "string"
        }
      ],
      "name": "PolicyAdded",
      "type": "event"
    },
    {
      "anonymous": false,
      "inputs": [
        {
          "indexed": false,
          "internalType": "uint256",
          "name": "policyId",
          "type": "uint256"
        }
      ],
      "name": "PolicyRemoved",
      "type": "event"
    },
    {
      "anonymous": false,
      "inputs": [
        {
          "indexed": false,
          "internalType": "uint256",
          "name": "policyId",
          "type": "uint256"
        },
        {
          "indexed": false,
          "internalType": "string",
          "name": "newDescription",
          "type": "string"
        }
      ],
      "name": "PolicyUpdated",
      "type": "event"
    },
    {
      "inputs": [],
      "name": "owner",
      "outputs": [
        {
          "internalType": "address",
          "name": "",
          "type": "address"
        }
      ],
      "stateMutability": "view",
      "type": "function",
      "constant": true
    },
    {
      "inputs": [
        {
          "internalType": "uint256",
          "name": "",
          "type": "uint256"
        }
      ],
      "name": "policies",
      "outputs": [
        {
          "internalType": "uint256",
          "name": "id",
          "type": "uint256"
        },
        {
          "internalType": "string",
          "name": "description",
          "type": "string"
        },
        {
          "internalType": "bool",
          "name": "isActive",
          "type": "bool"
        }
      ],
      "stateMutability": "view",
      "type": "function",
      "constant": true
    },
    {
      "inputs": [
        {
          "internalType": "uint256",
          "name": "",
          "type": "uint256"
        },
        {
          "internalType": "uint256",
          "name": "",
          "type": "uint256"
        }
      ],
      "name": "policyConstraints",
      "outputs": [
        {
          "internalType": "string",
          "name": "constraintType",
          "type": "string"
        },
        {
          "internalType": "string",
          "name": "value",
          "type": "string"
        }
      ],
      "stateMutability": "view",
      "type": "function",
      "constant": true
    },
    {
      "inputs": [],
      "name": "policyCount",
      "outputs": [
        {
          "internalType": "uint256",
          "name": "",
          "type": "uint256"
        }
      ],
      "stateMutability": "view",
      "type": "function",
      "constant": true
    },
    {
      "inputs": [
        {
          "internalType": "address",
          "name": "",
          "type": "address"
        }
      ],
      "name": "userRoles",
      "outputs": [
        {
          "internalType": "string",
          "name": "",
          "type": "string"
        }
      ],
      "stateMutability": "view",
      "type": "function",
      "constant": true
    },
    {
      "inputs": [
        {
          "internalType": "string",
          "name": "_description",
          "type": "string"
        },
        {
          "internalType": "address[]",
          "name": "_users",
          "type": "address[]"
        },
        {
          "internalType": "string[]",
          "name": "_resources",
          "type": "string[]"
        },
        {
          "components": [
            {
              "internalType": "string",
              "name": "constraintType",
              "type": "string"
            },
            {
              "internalType": "string",
              "name": "value",
              "type": "string"
            }
          ],
          "internalType": "struct ContextAwareAccessControl.ContextConstraint[]",
          "name": "_constraints",
          "type": "tuple[]"
        }
      ],
      "name": "addPolicy",
      "outputs": [],
      "stateMutability": "nonpayable",
      "type": "function"
    },
    {
      "inputs": [
        {
          "internalType": "uint256",
          "name": "policyId",
          "type": "uint256"
        },
        {
          "internalType": "string",
          "name": "newDescription",
          "type": "string"
        }
      ],
      "name": "updatePolicyDescription",
      "outputs": [],
      "stateMutability": "nonpayable",
      "type": "function"
    },
    {
      "inputs": [
        {
          "internalType": "uint256",
          "name": "policyId",
          "type": "uint256"
        }
      ],
      "name": "removePolicy",
      "outputs": [],
      "stateMutability": "nonpayable",
      "type": "function"
    },
    {
      "inputs": [
        {
          "internalType": "address",
          "name": "user",
          "type": "address"
        },
        {
          "internalType": "string",
          "name": "role",
          "type": "string"
        }
      ],
      "name": "setUserRole",
      "outputs": [],
      "stateMutability": "nonpayable",
      "type": "function"
    },
    {
      "inputs": [
        {
          "internalType": "uint256",
          "name": "policyId",
          "type": "uint256"
        },
        {
          "internalType": "address",
          "name": "user",
          "type": "address"
        },
        {
          "internalType": "string",
          "name": "resource",
          "type": "string"
        },
        {
          "internalType": "string",
          "name": "contextType",
          "type": "string"
        },
        {
          "internalType": "string",
          "name": "contextValue",
          "type": "string"
        }
      ],
      "name": "enforcePolicy",
      "outputs": [
        {
          "internalType": "bool",
          "name": "",
          "type": "bool"
        }
      ],
      "stateMutability": "view",
      "type": "function",
      "constant": true
    }
  ],
  "bytecode": "0x608060405234801561001057600080fd5b5033600460006101000a81548173ffffffffffffffffffffffffffffffffffffffff021916908373ffffffffffffffffffffffffffffffffffffffff160217905550611f31806100616000396000f3fe608060405234801561001057600080fd5b506004361061009e5760003560e01c80638da5cb5b116100665780638da5cb5b1461016c5780639172b2161461018a578063b0e0aafd146101a6578063d3e89483146101c2578063de54d429146101f45761009e565b80632276abc9146100a357806326e5a2b6146100d45780636caddcdc14610104578063724de9791461012057806374d5e1001461013c575b600080fd5b6100bd60048036038101906100b8919061170b565b610212565b6040516100cb929190611a89565b60405180910390f35b6100ee60048036038101906100e991906115f8565b610363565b6040516100fb9190611a4c565b60405180910390f35b61011e600480360381019061011991906115cf565b61087a565b005b61013a600480360381019061013591906114b8565b6109b6565b005b6101566004803603810190610151919061148f565b610a9e565b6040516101639190611a67565b60405180910390f35b610174610b3e565b6040516101819190611a31565b60405180910390f35b6101a4600480360381019061019f919061150c565b610b64565b005b6101c060048036038101906101bb91906116b7565b610dec565b005b6101dc60048036038101906101d791906115cf565b610f27565b6040516101eb93929190611bcb565b60405180910390f35b6101fc610fe6565b6040516102099190611b80565b60405180910390f35b6001602052816000526040600020818154811061022e57600080fd5b90600052602060002090600202016000915091505080600001805461025290611db4565b80601f016020809104026020016040519081016040528092919081815260200182805461027e90611db4565b80156102cb5780601f106102a0576101008083540402835291602001916102cb565b820191906000526020600020905b8154815290600101906020018083116102ae57829003601f168201915b5050505050908060010180546102e090611db4565b80601f016020809104026020016040519081016040528092919081815260200182805461030c90611db4565b80156103595780601f1061032e57610100808354040283529160200191610359565b820191906000526020600020905b81548152906001019060200180831161033c57829003601f168201915b5050505050905082565b60008060008088815260200190815260200160002090508060040160009054906101000a900460ff166103cb576040517f08c379a00000000000000000000000000000000000000000000000000000000081526004016103c290611b00565b60405180910390fd5b6000805b8260020180549050811015610494578773ffffffffffffffffffffffffffffffffffffffff16836002018281548110610431577f4e487b7100000000000000000000000000000000000000000000000000000000600052603260045260246000fd5b9060005260206000200160009054906101000a900473ffffffffffffffffffffffffffffffffffffffff1673ffffffffffffffffffffffffffffffffffffffff1614156104815760019150610494565b808061048c90611de6565b9150506103cf565b50806104d5576040517f08c379a00000000000000000000000000000000000000000000000000000000081526004016104cc90611ae0565b60405180910390fd5b6000151581151514156104ed57600092505050610871565b6000805b83600301805490508110156105b557876040516020016105119190611a03565b60405160208183030381529060405280519060200120846003018281548110610563577f4e487b7100000000000000000000000000000000000000000000000000000000600052603260045260246000fd5b9060005260206000200160405160200161057d9190611a1a565b6040516020818303038152906040528051906020012014156105a257600191506105b5565b80806105ad90611de6565b9150506104f1565b50806105f6576040517f08c379a00000000000000000000000000000000000000000000000000000000081526004016105ed90611b20565b60405180910390fd5b60001515811515141561060f5760009350505050610871565b6000600160008b8152602001908152602001600020905060005b818054905081101561086757876040516020016106469190611a03565b60405160208183030381529060405280519060200120828281548110610695577f4e487b7100000000000000000000000000000000000000000000000000000000600052603260045260246000fd5b90600052602060002090600202016000016040516020016106b69190611a1a565b60405160208183030381529060405280519060200120141561085457866040516020016106e39190611a03565b60405160208183030381529060405280519060200120828281548110610732577f4e487b7100000000000000000000000000000000000000000000000000000000600052603260045260246000fd5b90600052602060002090600202016001016040516020016107539190611a1a565b60405160208183030381529060405280519060200120146107a9576040517f08c379a00000000000000000000000000000000000000000000000000000000081526004016107a090611b60565b60405180910390fd5b866040516020016107ba9190611a03565b60405160208183030381529060405280519060200120828281548110610809577f4e487b7100000000000000000000000000000000000000000000000000000000600052603260045260246000fd5b906000526020600020906002020160010160405160200161082a9190611a1a565b604051602081830303815290604052805190602001201461085357600095505050505050610871565b5b808061085f90611de6565b915050610629565b5060019450505050505b95945050505050565b600460009054906101000a900473ffffffffffffffffffffffffffffffffffffffff1673ffffffffffffffffffffffffffffffffffffffff163373ffffffffffffffffffffffffffffffffffffffff161461090a576040517f08c379a000000000000000000000000000000000000000000000000000000000815260040161090190611ac0565b60405180910390fd5b600354811061094e576040517f08c379a000000000000000000000000000000000000000000000000000000000815260040161094590611b40565b60405180910390fd5b600080600083815260200190815260200160002060040160006101000a81548160ff0219169083151502179055507f914b5eb6858efd4c0c88bd9c5739e35758fa8e8ac40d2d235715b6f14c71f6de816040516109ab9190611b80565b60405180910390a150565b600460009054906101000a900473ffffffffffffffffffffffffffffffffffffffff1673ffffffffffffffffffffffffffffffffffffffff163373ffffffffffffffffffffffffffffffffffffffff1614610a46576040517f08c379a0000000000000000000000000000000000000000000000000000000008152600401610a3d90611ac0565b60405180910390fd5b80600260008473ffffffffffffffffffffffffffffffffffffffff1673ffffffffffffffffffffffffffffffffffffffff1681526020019081526020016000209080519060200190610a99929190610fec565b505050565b60026020528060005260406000206000915090508054610abd90611db4565b80601f0160208091040260200160405190810160405280929190818152602001828054610ae990611db4565b8015610b365780601f10610b0b57610100808354040283529160200191610b36565b820191906000526020600020905b815481529060010190602001808311610b1957829003601f168201915b505050505081565b600460009054906101000a900473ffffffffffffffffffffffffffffffffffffffff1681565b600460009054906101000a900473ffffffffffffffffffffffffffffffffffffffff1673ffffffffffffffffffffffffffffffffffffffff163373ffffffffffffffffffffffffffffffffffffffff1614610bf4576040517f08c379a0000000000000000000000000000000000000000000000000000000008152600401610beb90611ac0565b60405180910390fd5b6040518060a001604052806003548152602001858152602001848152602001838152602001600115158152506000806003548152602001908152602001600020600082015181600001556020820151816001019080519060200190610c5a929190610fec565b506040820151816002019080519060200190610c77929190611072565b506060820151816003019080519060200190610c949291906110fc565b5060808201518160040160006101000a81548160ff02191690831515021790555090505060005b8151811015610d9257600160006003548152602001908152602001600020828281518110610d12577f4e487b7100000000000000000000000000000000000000000000000000000000600052603260045260246000fd5b602002602001015190806001815401808255809150506001900390600052602060002090600202016000909190919091506000820151816000019080519060200190610d5f929190610fec565b506020820151816001019080519060200190610d7c929190610fec565b5050508080610d8a90611de6565b915050610cbb565b507fc402f15c92cbb1b3436a267bb09e31f369812f7b8165bffecf926e020b895cf060035485604051610dc6929190611b9b565b60405180910390a160036000815480929190610de190611de6565b919050555050505050565b600460009054906101000a900473ffffffffffffffffffffffffffffffffffffffff1673ffffffffffffffffffffffffffffffffffffffff163373ffffffffffffffffffffffffffffffffffffffff1614610e7c576040517f08c379a0000000000000000000000000000000000000000000000000000000008152600401610e7390611ac0565b60405180910390fd5b6003548210610ec0576040517f08c379a0000000000000000000000000000000000000000000000000000000008152600401610eb790611b40565b60405180910390fd5b806000808481526020019081526020016000206001019080519060200190610ee9929190610fec565b507f351450a88c661a4435a1ddd558ad6b87b452e8cb0957866c734fda585103ff538282604051610f1b929190611b9b565b60405180910390a15050565b6000602052806000526040600020600091509050806000015490806001018054610f5090611db4565b80601f0160208091040260200160405190810160405280929190818152602001828054610f7c90611db4565b8015610fc95780601f10610f9e57610100808354040283529160200191610fc9565b820191906000526020600020905b815481529060010190602001808311610fac57829003601f168201915b5050505050908060040160009054906101000a900460ff16905083565b60035481565b828054610ff890611db4565b90600052602060002090601f01602090048101928261101a5760008555611061565b82601f1061103357805160ff1916838001178555611061565b82800160010185558215611061579182015b82811115611060578251825591602001919060010190611045565b5b50905061106e919061115c565b5090565b8280548282559060005260206000209081019282156110eb579160200282015b828111156110ea5782518260006101000a81548173ffffffffffffffffffffffffffffffffffffffff021916908373ffffffffffffffffffffffffffffffffffffffff16021790555091602001919060010190611092565b5b5090506110f8919061115c565b5090565b82805482825590600052602060002090810192821561114b579160200282015b8281111561114a57825182908051906020019061113a929190610fec565b509160200191906001019061111c565b5b5090506111589190611179565b5090565b5b8082111561117557600081600090555060010161115d565b5090565b5b808211156111995760008181611190919061119d565b5060010161117a565b5090565b5080546111a990611db4565b6000825580601f106111bb57506111da565b601f0160209004906000526020600020908101906111d9919061115c565b5b50565b60006111f06111eb84611c3a565b611c09565b9050808382526020820190508285602086028201111561120f57600080fd5b60005b8581101561123f57816112258882611341565b845260208401935060208301925050600181019050611212565b5050509392505050565b600061125c61125784611c66565b611c09565b9050808382526020820190508260005b8581101561129c578135850161128288826113d4565b84526020840193506020830192505060018101905061126c565b5050509392505050565b60006112b96112b484611c92565b611c09565b9050808382526020820190508260005b858110156112f957813585016112df88826113fe565b8452602084019350602083019250506001810190506112c9565b5050509392505050565b600061131661131184611cbe565b611c09565b90508281526020810184848401111561132e57600080fd5b611339848285611d72565b509392505050565b60008135905061135081611ecd565b92915050565b600082601f83011261136757600080fd5b81356113778482602086016111dd565b91505092915050565b600082601f83011261139157600080fd5b81356113a1848260208601611249565b91505092915050565b600082601f8301126113bb57600080fd5b81356113cb8482602086016112a6565b91505092915050565b600082601f8301126113e557600080fd5b81356113f5848260208601611303565b91505092915050565b60006040828403121561141057600080fd5b61141a6040611c09565b9050600082013567ffffffffffffffff81111561143657600080fd5b611442848285016113d4565b600083015250602082013567ffffffffffffffff81111561146257600080fd5b61146e848285016113d4565b60208301525092915050565b60008135905061148981611ee4565b92915050565b6000602082840312156114a157600080fd5b60006114af84828501611341565b91505092915050565b600080604083850312156114cb57600080fd5b60006114d985828601611341565b925050602083013567ffffffffffffffff8111156114f657600080fd5b611502858286016113d4565b9150509250929050565b6000806000806080858703121561152257600080fd5b600085013567ffffffffffffffff81111561153c57600080fd5b611548878288016113d4565b945050602085013567ffffffffffffffff81111561156557600080fd5b61157187828801611356565b935050604085013567ffffffffffffffff81111561158e57600080fd5b61159a87828801611380565b925050606085013567ffffffffffffffff8111156115b757600080fd5b6115c3878288016113aa565b91505092959194509250565b6000602082840312156115e157600080fd5b60006115ef8482850161147a565b91505092915050565b600080600080600060a0868803121561161057600080fd5b600061161e8882890161147a565b955050602061162f88828901611341565b945050604086013567ffffffffffffffff81111561164c57600080fd5b611658888289016113d4565b935050606086013567ffffffffffffffff81111561167557600080fd5b611681888289016113d4565b925050608086013567ffffffffffffffff81111561169e57600080fd5b6116aa888289016113d4565b9150509295509295909350565b600080604083850312156116ca57600080fd5b60006116d88582860161147a565b925050602083013567ffffffffffffffff8111156116f557600080fd5b611701858286016113d4565b9150509250929050565b6000806040838503121561171e57600080fd5b600061172c8582860161147a565b925050602061173d8582860161147a565b9150509250929050565b61175081611d2a565b82525050565b61175f81611d3c565b82525050565b600061177082611d03565b61177a8185611d0e565b935061178a818560208601611d81565b61179381611ebc565b840191505092915050565b60006117a982611d03565b6117b38185611d1f565b93506117c3818560208601611d81565b80840191505092915050565b600081546117dc81611db4565b6117e68186611d1f565b94506001821660008114611801576001811461181257611845565b60ff19831686528186019350611845565b61181b85611cee565b60005b8381101561183d5781548189015260018201915060208101905061181e565b838801955050505b50505092915050565b600061185b602683611d0e565b91507f4f6e6c7920746865206f776e65722063616e20706572666f726d20746869732060008301527f616374696f6e00000000000000000000000000000000000000000000000000006020830152604082019050919050565b60006118c1601383611d0e565b91507f75736572206e6f7420617574686f7269736564000000000000000000000000006000830152602082019050919050565b6000611901601483611d0e565b91507f506f6c696379206973206e6f74206163746976650000000000000000000000006000830152602082019050919050565b6000611941601783611d0e565b91507f7265736f757263655f6e6f745f617574686f72697365640000000000000000006000830152602082019050919050565b6000611981601183611d0e565b91507f496e76616c696420706f6c6963792049440000000000000000000000000000006000830152602082019050919050565b60006119c1601983611d0e565b91507f636f6e73747261696e7473206e6f7420736174736966696564000000000000006000830152602082019050919050565b6119fd81611d68565b82525050565b6000611a0f828461179e565b915081905092915050565b6000611a2682846117cf565b915081905092915050565b6000602082019050611a466000830184611747565b92915050565b6000602082019050611a616000830184611756565b92915050565b60006020820190508181036000830152611a818184611765565b905092915050565b60006040820190508181036000830152611aa38185611765565b90508181036020830152611ab78184611765565b90509392505050565b60006020820190508181036000830152611ad98161184e565b9050919050565b60006020820190508181036000830152611af9816118b4565b9050919050565b60006020820190508181036000830152611b19816118f4565b9050919050565b60006020820190508181036000830152611b3981611934565b9050919050565b60006020820190508181036000830152611b5981611974565b9050919050565b60006020820190508181036000830152611b79816119b4565b9050919050565b6000602082019050611b9560008301846119f4565b92915050565b6000604082019050611bb060008301856119f4565b8181036020830152611bc28184611765565b90509392505050565b6000606082019050611be060008301866119f4565b8181036020830152611bf28185611765565b9050611c016040830184611756565b949350505050565b6000604051905081810181811067ffffffffffffffff82111715611c3057611c2f611e8d565b5b8060405250919050565b600067ffffffffffffffff821115611c5557611c54611e8d565b5b602082029050602081019050919050565b600067ffffffffffffffff821115611c8157611c80611e8d565b5b602082029050602081019050919050565b600067ffffffffffffffff821115611cad57611cac611e8d565b5b602082029050602081019050919050565b600067ffffffffffffffff821115611cd957611cd8611e8d565b5b601f19601f8301169050602081019050919050565b60008190508160005260206000209050919050565b600081519050919050565b600082825260208201905092915050565b600081905092915050565b6000611d3582611d48565b9050919050565b60008115159050919050565b600073ffffffffffffffffffffffffffffffffffffffff82169050919050565b6000819050919050565b82818337600083830152505050565b60005b83811015611d9f578082015181840152602081019050611d84565b83811115611dae576000848401525b50505050565b60006002820490506001821680611dcc57607f821691505b60208210811415611de057611ddf611e5e565b5b50919050565b6000611df182611d68565b91507fffffffffffffffffffffffffffffffffffffffffffffffffffffffffffffffff821415611e2457611e23611e2f565b5b600182019050919050565b7f4e487b7100000000000000000000000000000000000000000000000000000000600052601160045260246000fd5b7f4e487b7100000000000000000000000000000000000000000000000000000000600052602260045260246000fd5b7f4e487b7100000000000000000000000000000000000000000000000000000000600052604160045260246000fd5b6000601f19601f8301169050919050565b611ed681611d2a565b8114611ee157600080fd5b50565b611eed81611d68565b8114611ef857600080fd5b5056fea264697066735822122010e42c47ffbf1e34483214e9cb0242e465b48705c9e38dbcd9f44b9f8a63b73e64736f6c63430008000033",
  "immutableReferences": {},
  "source": "// SPDX-License-Identifier: MIT\npragma solidity ^0.8.0;\n\ncontract ContextAwareAccessControl {\n    struct ContextConstraint {\n        string constraintType; // e.g., \"time\", \"location\"\n        string value; // e.g., \"9-17\", \"latitude:40.7128,longitude:-74.0060\"\n    }\n\n    struct Policy {\n        uint256 id;\n        string description;\n        address[] authorizedUsers;\n        string[] authorizedResources;\n        bool isActive;\n    }\n\n    mapping(uint256 => Policy) public policies; // Stores policies\n    mapping(uint256 => ContextConstraint[]) public policyConstraints; // Maps policy ID to context constraints\n    mapping(address => string) public userRoles; // Maps user addresses to roles\n    uint256 public policyCount;\n\n    address public owner;\n\n    // Events\n    event PolicyAdded(uint256 policyId, string description);\n    event PolicyUpdated(uint256 policyId, string newDescription);\n    event PolicyRemoved(uint256 policyId);\n    event AccessGranted(address user, string resource);\n    event AccessDenied(address user, string resource);\n\n    constructor() {\n        owner = msg.sender; // Set the deployer as the owner/admin\n    }\n\n    modifier onlyOwner() {\n        require(msg.sender == owner, \"Only the owner can perform this action\");\n        _;\n    }\n\n    // Add a policy (Admin only)\n    function addPolicy(\n        string memory _description,\n        address[] memory _users,\n        string[] memory _resources,\n        ContextConstraint[] memory _constraints\n    ) public onlyOwner {\n        // Store the basic policy details\n        policies[policyCount] = Policy({\n            id: policyCount,\n            description: _description,\n            authorizedUsers: _users,\n            authorizedResources: _resources,\n            isActive: true\n        });\n\n        // Store context constraints separately in the mapping\n        for (uint256 i = 0; i < _constraints.length; i++) {\n            policyConstraints[policyCount].push(_constraints[i]);\n        }\n\n        emit PolicyAdded(policyCount, _description);\n        policyCount++;\n    }\n\n    // Update a policy's description (Admin only)\n    function updatePolicyDescription(uint256 policyId, string memory newDescription) public onlyOwner {\n        require(policyId < policyCount, \"Invalid policy ID\");\n        policies[policyId].description = newDescription;\n\n        emit PolicyUpdated(policyId, newDescription);\n    }\n\n    // Remove a policy (Admin only)\n    function removePolicy(uint256 policyId) public onlyOwner {\n        require(policyId < policyCount, \"Invalid policy ID\");\n        policies[policyId].isActive = false;\n\n        emit PolicyRemoved(policyId);\n    }\n\n    // Assign user roles (Admin only)\n    function setUserRole(address user, string memory role) public onlyOwner {\n        userRoles[user] = role;\n    }\n\n    // Enforce policy to check access\n    function enforcePolicy(\n        uint256 policyId,\n        address user,\n        string memory resource,\n        string memory contextType,\n        string memory contextValue\n    ) public view returns (bool) {\n        Policy storage policy = policies[policyId];\n        require(policy.isActive, \"Policy is not active\");\n       \n        // Check if the user is authorized\n        bool userAuthorized = false;\n        for (uint256 i = 0; i < policy.authorizedUsers.length; i++) {\n            if (policy.authorizedUsers[i] == user) {\n                userAuthorized = true;\n                break;\n            }\n        }\n        require(userAuthorized,\"user not authorised\");\n        if(userAuthorized==false){\n          return false;\n        }\n\n        // Check if the resource is authorized\n        bool resourceAuthorized = false;\n        for (uint256 i = 0; i < policy.authorizedResources.length; i++) {\n            if (keccak256(abi.encodePacked(policy.authorizedResources[i])) == keccak256(abi.encodePacked(resource))) {\n                resourceAuthorized = true;\n                break;\n            }\n        }\n        require(resourceAuthorized, \"resource_not_authorised\");\n        if(resourceAuthorized==false){\n          return false;\n        }\n\n        // Check context constraints\n        ContextConstraint[] storage constraints = policyConstraints[policyId];\n        for (uint256 i = 0; i < constraints.length; i++) {\n            if (\n                keccak256(abi.encodePacked(constraints[i].constraintType)) ==\n                keccak256(abi.encodePacked(contextType))\n            ) {\n                require(\n                    keccak256(abi.encodePacked(constraints[i].value)) == keccak256(abi.encodePacked(contextValue)),\n                    \"constraints not satsified\"\n                );\n                if(keccak256(abi.encodePacked(constraints[i].value)) != keccak256(abi.encodePacked(contextValue))){\n                  return false;\n                     }\n            }\n        }\n\n        //emit AccessGranted(user, resource);\n        return true; // Access granted\n    }\n}\n",
  "sourcePath": "/Users/mac/Documents/iot-blockchain/contracts/ContextAwareAccessControl.sol",
  "compiler": {
    "name": "solc",
    "version": "0.8.0+commit.c7dfd78e.Emscripten.clang"
  },
  "schemaVersion": "3.4.16",
  "updatedAt": "2024-11-26T03:13:56.714Z",
  "networkType": "ethereum",
  "devdoc": {
    "kind": "dev",
    "methods": {},
    "version": 1
  },
  "userdoc": {
    "kind": "user",
    "methods": {},
    "version": 1
  }
}